:100000000C9434000C9446000C9446000C949F0011
:100010000C9446000C9446000C9446000C94460048
:100020000C9446000C9446000C9446000C94460038
:100030000C9446000C9446000C9446000C94460028
:100040000C9446000C9446000C9446000C94460018
:100050000C9446000C9446000C9446000C94460008
:100060000C9446000C94460011241FBECFEFD8E03C
:10007000DEBFCDBF21E0A0E0B1E001C01D92AA30FB
:10008000B207E1F70E946B010C94E0020C940000AF
:100090008EBD0DB407FEFDCF8EB50895CF93DF93CF
:1000A0002A9880E00E944800C82FD0E0DC2FCC279F
:1000B00080E00E9448002A9A9E01282BC90195954C
:1000C00087959595879595958795DF91CF9108951B
:1000D00080910601909107016AE070E00E94B802E9
:1000E0006B567E4F072E000C880B990B0E942C023A
:1000F0002DEC3CEC4CE45EE30E9482010E94F40192
:100100009B01709309016093080180910001909117
:100110000101019761F4243B31050CF45B9A809155
:10012000080190910901893C91050CF05B980895B4
:1001300084B1846284B981E58CBD789408951F925E
:100140000F920FB60F9211248F939F93189910C09E
:1001500082E090E090930101809300011BB818B8F1
:1001600010920501109204011092030110920201F5
:100170009F918F910F900FBE0F901F9018958091B7
:10018000040190910501029779F483E090E0909347
:1001900003018093020182E090E09093010180933B
:1001A00000011BB888E088B90895CF93DF93809150
:1001B000040190910501019739F582E090E0909358
:1001C00005018093040184E088B959988BB185605A
:1001D0008BB9CCEDD5E00E944E009093070180933F
:1001E00006010E9468008091040190910501892B0D
:1001F00059F02FE38DE093E0215080409040E1F7EB
:1002000000C00000219739F7DF91CF910895CF9377
:10021000DF9319992CC08091040190910501892BDD
:1002200031F581E090E090930501809304018BB15A
:1002300086608BB982E088B9CCE3D0E00E944E00A2
:1002400090930701809306010E9468008091040149
:1002500090910501892B59F02FE38DE093E0215017
:1002600080409040E1F700C00000219739F7DF910E
:10027000CF910895189B1CC08091020190910301B9
:100280000397B1F00E944E009093070180930601FE
:100290000E94680080E188B981E090E090930101BC
:1002A000809300010E9407010E94D5000E94BF00B8
:1002B000189910C082E090E09093010180930001B2
:1002C0001BB818B810920501109204011092030196
:1002D00010920201089514B88EEF87B98FEF8AB992
:1002E00080936B0081E0809368000E9498000E94D8
:1002F0004E0090930701809306010E9468000E94BF
:100300003A01F5CF0E9496010C947E020E9477027A
:1003100058F00E94700240F029F45F3F29F00C94DD
:10032000670251110C94B2020C946D020E948F026C
:1003300068F39923B1F3552391F3951B550BBB2714
:10034000AA2762177307840738F09F5F5F4F220F59
:10035000331F441FAA1FA9F335D00E2E3AF0E0E850
:1003600032D091505040E695001CCAF72BD0FE2F9A
:1003700029D0660F771F881FBB1F2617370748072E
:10038000AB07B0E809F0BB0B802DBF01FF279358E6
:100390005F4F3AF09E3F510578F00C9467020C9441
:1003A000B2025F3FE4F3983ED4F386957795679564
:1003B000B795F7959F5FC9F7880F911D969587951B
:1003C00097F90895E1E0660F771F881FBB1F62173A
:1003D00073078407BA0720F0621B730B840BBA0BF8
:1003E000EE1F88F7E09508950E94FB016894B11113
:1003F0000C94B20208950E94970288F09F5798F0DB
:10040000B92F9927B751B0F0E1F0660F771F881F19
:10041000991F1AF0BA95C9F714C0B13091F00E9433
:10042000B102B1E008950C94B102672F782F8827AC
:10043000B85F39F0B93FCCF3869577956795B3955A
:10044000D9F73EF490958095709561957F4F8F4FC9
:100450009F4F0895E89409C097FB3EF490958095CE
:10046000709561957F4F8F4F9F4F9923A9F0F92F7A
:1004700096E9BB279395F695879577956795B795F8
:10048000F111F8CFFAF4BB0F11F460FF1BC06F5FDE
:100490007F4F8F4F9F4F16C0882311F096E911C0F0
:1004A000772321F09EE8872F762F05C0662371F011
:1004B00096E8862F70E060E02AF09A95660F771F25
:1004C000881FDAF7880F9695879597F9089597F919
:1004D0009F6780E870E060E008959FEF80EC0895EA
:1004E00000240A9416161706180609060895002413
:1004F0000A9412161306140605060895092E03948D
:10050000000C11F4882352F0BB0F40F4BF2B11F400
:1005100060FF04C06F5F7F4F8F4F9F4F089557FD5F
:100520009058440F551F59F05F3F71F04795880F61
:1005300097FB991F61F09F3F79F0879508951216F8
:1005400013061406551FF2CF4695F1DF08C01616A4
:1005500017061806991FF1CF869571056105089455
:100560000895E894BB2766277727CB0197F908956C
:1005700097FB072E16F4009407D077FD09D00E9450
:10058000CC0207FC05D03EF4909581959F4F0895CD
:10059000709561957F4F0895AA1BBB1B51E107C061
:1005A000AA1FBB1FA617B70710F0A61BB70B881F03
:1005B000991F5A95A9F780959095BC01CD01089592
:0405C000F894FFCFDD
:00000001FF
